{
  "address": "0xe7f1725E7734CE288F8367e1Bb143E90bb3F0512",
  "abi": [
    {
      "inputs": [
        {
          "internalType": "address",
          "name": "_priceFeed",
          "type": "address"
        }
      ],
      "stateMutability": "nonpayable",
      "type": "constructor"
    },
    {
      "inputs": [],
      "name": "FundMe_MinimumETH",
      "type": "error"
    },
    {
      "inputs": [],
      "name": "FundMe__NotOwner",
      "type": "error"
    },
    {
      "stateMutability": "payable",
      "type": "fallback"
    },
    {
      "inputs": [],
      "name": "MINIMUM_USD",
      "outputs": [
        {
          "internalType": "uint256",
          "name": "",
          "type": "uint256"
        }
      ],
      "stateMutability": "view",
      "type": "function"
    },
    {
      "inputs": [],
      "name": "cheaperWidthdraw",
      "outputs": [],
      "stateMutability": "payable",
      "type": "function"
    },
    {
      "inputs": [],
      "name": "fund",
      "outputs": [],
      "stateMutability": "payable",
      "type": "function"
    },
    {
      "inputs": [
        {
          "internalType": "address",
          "name": "funder",
          "type": "address"
        }
      ],
      "name": "getFundedAmount",
      "outputs": [
        {
          "internalType": "uint256",
          "name": "",
          "type": "uint256"
        }
      ],
      "stateMutability": "view",
      "type": "function"
    },
    {
      "inputs": [
        {
          "internalType": "uint256",
          "name": "index",
          "type": "uint256"
        }
      ],
      "name": "getFunder",
      "outputs": [
        {
          "internalType": "address",
          "name": "",
          "type": "address"
        }
      ],
      "stateMutability": "view",
      "type": "function"
    },
    {
      "inputs": [],
      "name": "getOwner",
      "outputs": [
        {
          "internalType": "address",
          "name": "",
          "type": "address"
        }
      ],
      "stateMutability": "view",
      "type": "function"
    },
    {
      "inputs": [],
      "name": "getPriceFeed",
      "outputs": [
        {
          "internalType": "contract AggregatorV3Interface",
          "name": "",
          "type": "address"
        }
      ],
      "stateMutability": "view",
      "type": "function"
    },
    {
      "inputs": [],
      "name": "getVersion",
      "outputs": [
        {
          "internalType": "uint256",
          "name": "",
          "type": "uint256"
        }
      ],
      "stateMutability": "view",
      "type": "function"
    },
    {
      "inputs": [],
      "name": "withdraw",
      "outputs": [],
      "stateMutability": "payable",
      "type": "function"
    },
    {
      "stateMutability": "payable",
      "type": "receive"
    }
  ],
  "transactionHash": "0x100d3c6f57af39bf1da0bfbeb2f591a46759ac00d2045d5eec15979003ed2401",
  "args": [
    "0x5FbDB2315678afecb367f032d93F642f64180aa3"
  ],
  "numDeployments": 1,
  "solcInputHash": "ac754a27114a7411ba9e830eaa626d5f",
  "bytecode": "0x60a06040523480156200001157600080fd5b50604051620013cc380380620013cc833981810160405281019062000037919062000120565b3373ffffffffffffffffffffffffffffffffffffffff1660808173ffffffffffffffffffffffffffffffffffffffff1660601b8152505080600260006101000a81548173ffffffffffffffffffffffffffffffffffffffff021916908373ffffffffffffffffffffffffffffffffffffffff1602179055505062000152565b600080fd5b600073ffffffffffffffffffffffffffffffffffffffff82169050919050565b6000620000e882620000bb565b9050919050565b620000fa81620000db565b81146200010657600080fd5b50565b6000815190506200011a81620000ef565b92915050565b600060208284031215620001395762000138620000b6565b5b6000620001498482850162000109565b91505092915050565b60805160601c61123f6200018d600039600081816103c0015281816105530152818161062e0152818161067e0152610874015261123f6000f3fe60806040526004361061008a5760003560e01c80639e87a5cd116100595780639e87a5cd1461012e578063abb2f1d714610159578063b60d428814610163578063d7b4750c1461016d578063de8551ce146101aa57610099565b80630d8e6e2c146100a35780633ccfd60b146100ce5780636b69a592146100d8578063893d20e81461010357610099565b36610099576100976101e7565b005b6100a16101e7565b005b3480156100af57600080fd5b506100b8610317565b6040516100c59190610b6c565b60405180910390f35b6100d66103be565b005b3480156100e457600080fd5b506100ed61061e565b6040516100fa9190610b6c565b60405180910390f35b34801561010f57600080fd5b5061011861062a565b6040516101259190610bc8565b60405180910390f35b34801561013a57600080fd5b50610143610652565b6040516101509190610c42565b60405180910390f35b61016161067c565b005b61016b6101e7565b005b34801561017957600080fd5b50610194600480360381019061018f9190610c8e565b610940565b6040516101a19190610bc8565b60405180910390f35b3480156101b657600080fd5b506101d160048036038101906101cc9190610ce7565b610988565b6040516101de9190610b6c565b60405180910390f35b678ac7230489e80000610225600260009054906101000a900473ffffffffffffffffffffffffffffffffffffffff16346109d090919063ffffffff16565b101561025d576040517f2521e94500000000000000000000000000000000000000000000000000000000815260040160405180910390fd5b346000803373ffffffffffffffffffffffffffffffffffffffff1673ffffffffffffffffffffffffffffffffffffffff16815260200190815260200160002060008282546102ab9190610d43565b925050819055506001339080600181540180825580915050600190039060005260206000200160009091909190916101000a81548173ffffffffffffffffffffffffffffffffffffffff021916908373ffffffffffffffffffffffffffffffffffffffff160217905550565b6000600260009054906101000a900473ffffffffffffffffffffffffffffffffffffffff1673ffffffffffffffffffffffffffffffffffffffff166354fd4d506040518163ffffffff1660e01b815260040160206040518083038186803b15801561038157600080fd5b505afa158015610395573d6000803e3d6000fd5b505050506040513d601f19601f820116820180604052508101906103b99190610dae565b905090565b7f000000000000000000000000000000000000000000000000000000000000000073ffffffffffffffffffffffffffffffffffffffff163373ffffffffffffffffffffffffffffffffffffffff1614610443576040517f579610db00000000000000000000000000000000000000000000000000000000815260040160405180910390fd5b60005b6001805490508110156104ee5760006001828154811061046957610468610ddb565b5b9060005260206000200160009054906101000a900473ffffffffffffffffffffffffffffffffffffffff16905060008060008373ffffffffffffffffffffffffffffffffffffffff1673ffffffffffffffffffffffffffffffffffffffff168152602001908152602001600020819055505080806104e690610e0a565b915050610446565b50600067ffffffffffffffff81111561050a57610509610e53565b5b6040519080825280602002602001820160405280156105385781602001602082028036833780820191505090505b506001908051906020019061054e929190610aac565b5060007f000000000000000000000000000000000000000000000000000000000000000073ffffffffffffffffffffffffffffffffffffffff164760405161059590610eb3565b60006040518083038185875af1925050503d80600081146105d2576040519150601f19603f3d011682016040523d82523d6000602084013e6105d7565b606091505b505090508061061b576040517f08c379a000000000000000000000000000000000000000000000000000000000815260040161061290610f25565b60405180910390fd5b50565b678ac7230489e8000081565b60007f0000000000000000000000000000000000000000000000000000000000000000905090565b6000600260009054906101000a900473ffffffffffffffffffffffffffffffffffffffff16905090565b7f000000000000000000000000000000000000000000000000000000000000000073ffffffffffffffffffffffffffffffffffffffff163373ffffffffffffffffffffffffffffffffffffffff1614610701576040517f579610db00000000000000000000000000000000000000000000000000000000815260040160405180910390fd5b6000600180548060200260200160405190810160405280929190818152602001828054801561078557602002820191906000526020600020905b8160009054906101000a900473ffffffffffffffffffffffffffffffffffffffff1673ffffffffffffffffffffffffffffffffffffffff168152602001906001019080831161073b575b5050505050905060005b815181101561080f5760008282815181106107ad576107ac610ddb565b5b6020026020010151905060008060008373ffffffffffffffffffffffffffffffffffffffff1673ffffffffffffffffffffffffffffffffffffffff1681526020019081526020016000208190555050808061080790610e0a565b91505061078f565b50600067ffffffffffffffff81111561082b5761082a610e53565b5b6040519080825280602002602001820160405280156108595781602001602082028036833780820191505090505b506001908051906020019061086f929190610aac565b5060007f000000000000000000000000000000000000000000000000000000000000000073ffffffffffffffffffffffffffffffffffffffff16476040516108b690610eb3565b60006040518083038185875af1925050503d80600081146108f3576040519150601f19603f3d011682016040523d82523d6000602084013e6108f8565b606091505b505090508061093c576040517f08c379a000000000000000000000000000000000000000000000000000000000815260040161093390610f25565b60405180910390fd5b5050565b60006001828154811061095657610955610ddb565b5b9060005260206000200160009054906101000a900473ffffffffffffffffffffffffffffffffffffffff169050919050565b60008060008373ffffffffffffffffffffffffffffffffffffffff1673ffffffffffffffffffffffffffffffffffffffff168152602001908152602001600020549050919050565b6000806109dc83610a0c565b90506000670de0b6b3a764000085836109f59190610f45565b6109ff9190610fce565b9050809250505092915050565b6000808273ffffffffffffffffffffffffffffffffffffffff1663feaf968c6040518163ffffffff1660e01b815260040160a06040518083038186803b158015610a5557600080fd5b505afa158015610a69573d6000803e3d6000fd5b505050506040513d601f19601f82011682018060405250810190610a8d9190611077565b5050509150506402540be40081610aa491906110f2565b915050919050565b828054828255906000526020600020908101928215610b25579160200282015b82811115610b245782518260006101000a81548173ffffffffffffffffffffffffffffffffffffffff021916908373ffffffffffffffffffffffffffffffffffffffff16021790555091602001919060010190610acc565b5b509050610b329190610b36565b5090565b5b80821115610b4f576000816000905550600101610b37565b5090565b6000819050919050565b610b6681610b53565b82525050565b6000602082019050610b816000830184610b5d565b92915050565b600073ffffffffffffffffffffffffffffffffffffffff82169050919050565b6000610bb282610b87565b9050919050565b610bc281610ba7565b82525050565b6000602082019050610bdd6000830184610bb9565b92915050565b6000819050919050565b6000610c08610c03610bfe84610b87565b610be3565b610b87565b9050919050565b6000610c1a82610bed565b9050919050565b6000610c2c82610c0f565b9050919050565b610c3c81610c21565b82525050565b6000602082019050610c576000830184610c33565b92915050565b600080fd5b610c6b81610b53565b8114610c7657600080fd5b50565b600081359050610c8881610c62565b92915050565b600060208284031215610ca457610ca3610c5d565b5b6000610cb284828501610c79565b91505092915050565b610cc481610ba7565b8114610ccf57600080fd5b50565b600081359050610ce181610cbb565b92915050565b600060208284031215610cfd57610cfc610c5d565b5b6000610d0b84828501610cd2565b91505092915050565b7f4e487b7100000000000000000000000000000000000000000000000000000000600052601160045260246000fd5b6000610d4e82610b53565b9150610d5983610b53565b9250827fffffffffffffffffffffffffffffffffffffffffffffffffffffffffffffffff03821115610d8e57610d8d610d14565b5b828201905092915050565b600081519050610da881610c62565b92915050565b600060208284031215610dc457610dc3610c5d565b5b6000610dd284828501610d99565b91505092915050565b7f4e487b7100000000000000000000000000000000000000000000000000000000600052603260045260246000fd5b6000610e1582610b53565b91507fffffffffffffffffffffffffffffffffffffffffffffffffffffffffffffffff821415610e4857610e47610d14565b5b600182019050919050565b7f4e487b7100000000000000000000000000000000000000000000000000000000600052604160045260246000fd5b600081905092915050565b50565b6000610e9d600083610e82565b9150610ea882610e8d565b600082019050919050565b6000610ebe82610e90565b9150819050919050565b600082825260208201905092915050565b7f43616c6c206661696c6564000000000000000000000000000000000000000000600082015250565b6000610f0f600b83610ec8565b9150610f1a82610ed9565b602082019050919050565b60006020820190508181036000830152610f3e81610f02565b9050919050565b6000610f5082610b53565b9150610f5b83610b53565b9250817fffffffffffffffffffffffffffffffffffffffffffffffffffffffffffffffff0483118215151615610f9457610f93610d14565b5b828202905092915050565b7f4e487b7100000000000000000000000000000000000000000000000000000000600052601260045260246000fd5b6000610fd982610b53565b9150610fe483610b53565b925082610ff457610ff3610f9f565b5b828204905092915050565b600069ffffffffffffffffffff82169050919050565b61101e81610fff565b811461102957600080fd5b50565b60008151905061103b81611015565b92915050565b6000819050919050565b61105481611041565b811461105f57600080fd5b50565b6000815190506110718161104b565b92915050565b600080600080600060a0868803121561109357611092610c5d565b5b60006110a18882890161102c565b95505060206110b288828901611062565b94505060406110c388828901610d99565b93505060606110d488828901610d99565b92505060806110e58882890161102c565b9150509295509295909350565b60006110fd82611041565b915061110883611041565b9250827f7fffffffffffffffffffffffffffffffffffffffffffffffffffffffffffffff048211600084136000841316161561114757611146610d14565b5b817f8000000000000000000000000000000000000000000000000000000000000000058312600084126000841316161561118457611183610d14565b5b827f800000000000000000000000000000000000000000000000000000000000000005821260008413600084121616156111c1576111c0610d14565b5b827f7fffffffffffffffffffffffffffffffffffffffffffffffffffffffffffffff05821260008412600084121616156111fe576111fd610d14565b5b82820290509291505056fea264697066735822122004cb3f9a9284f858d71db46d58da123cfbd88a4d0ead3c257fa0ee952c8f56b764736f6c63430008080033",
  "devdoc": {
    "author": "Alexy",
    "details": "This implements price feed as out library",
    "kind": "dev",
    "methods": {
      "fund()": {
        "details": "This implements price feed as out library"
      }
    },
    "title": "A contract for crowd funding",
    "version": 1
  },
  "userdoc": {
    "kind": "user",
    "methods": {
      "fund()": {
        "notice": "This function funds this contract"
      }
    },
    "notice": "This contract is a to deom a sample funding contract",
    "version": 1
  },
  "storageLayout": {
    "storage": [
      {
        "astId": 61,
        "contract": "contracts/FundMe.sol:FundMe",
        "label": "s_addressToAmountFunded",
        "offset": 0,
        "slot": "0",
        "type": "t_mapping(t_address,t_uint256)"
      },
      {
        "astId": 64,
        "contract": "contracts/FundMe.sol:FundMe",
        "label": "s_funders",
        "offset": 0,
        "slot": "1",
        "type": "t_array(t_address)dyn_storage"
      },
      {
        "astId": 76,
        "contract": "contracts/FundMe.sol:FundMe",
        "label": "s_priceFeed",
        "offset": 0,
        "slot": "2",
        "type": "t_contract(AggregatorV3Interface)45"
      }
    ],
    "types": {
      "t_address": {
        "encoding": "inplace",
        "label": "address",
        "numberOfBytes": "20"
      },
      "t_array(t_address)dyn_storage": {
        "base": "t_address",
        "encoding": "dynamic_array",
        "label": "address[]",
        "numberOfBytes": "32"
      },
      "t_contract(AggregatorV3Interface)45": {
        "encoding": "inplace",
        "label": "contract AggregatorV3Interface",
        "numberOfBytes": "20"
      },
      "t_mapping(t_address,t_uint256)": {
        "encoding": "mapping",
        "key": "t_address",
        "label": "mapping(address => uint256)",
        "numberOfBytes": "32",
        "value": "t_uint256"
      },
      "t_uint256": {
        "encoding": "inplace",
        "label": "uint256",
        "numberOfBytes": "32"
      }
    }
  }
}